:100000000C942A000C943F000C943F000C943F0089
:100010000C943F000C943F000C943F000C943F0064
:100020000C943F000C943F000C943F000C943F0054
:100030000C943F000C943F000C943F000C943F0044
:100040000C943F000C943F000C943F000C943F0034
:100050000C943F0011241FBECFE5D8E0DEBFCDBF1A
:1000600010E0A0E6B0E0EEEEF4E002C005900D92E4
:10007000A838B107D9F70E9488000C9475020C9437
:100080000000C4988FB9779BFECFC49A089585BBB2
:1000900084E082BB8FEC97E00197F1F700C000008D
:1000A00012BA9FE728E381E0915020408040E1F7B9
:1000B00000C0000008950F931F93CF93DF93EC01CE
:1000C0008B01452B19F081E00E944700FE0125E0DD
:1000D00031E0CF018C1B9D0B801791072CF0DF9135
:1000E000CF911F910F910895819185BB22BB8FEC19
:1000F00097E00197F1F700C0000032BB9FE748E3AB
:1001000081E0915040408040E1F700C00000E1CF25
:10011000CF93DF93CDB7DEB728970FB6F894DEBF45
:100120000FBECDBF80EB87BB80E188BB83E58DB977
:100130001EB880E487B987E886B910BE18B88FEF7B
:1001400084BB87E081BB88E30E9447008FEC97E087
:100150000197F1F700C0000081E00E9447008FEC9A
:1001600097E00197F1F700C000008EE00E94470081
:100170008FEC97E00197F1F700C0000080E80E9443
:1001800047008FEC97E00197F1F700C000009FEF68
:1001900024E38CE0915020408040E1F700C0000053
:1001A00000E0CE0101967C018AE0982E459B53C069
:1001B000369A349BFECF64B175B190E080E00E9426
:1001C000DB012AEA31EF42E050E40E943A010E944A
:1001D000AC01162F862F0E944100011789F141E0E2
:1001E00050E06CE070E080E690E0153638F5F701FD
:1001F000812F692D0E946902905D91936F01CE1845
:10020000DF088111F6CFF701EC0DFD1DDE0115961B
:100210005D0182918D93EE16FF06D9F7F501EC0D85
:10022000FD1D108241E050E06DE070E08DE690E051
:100230000E945B0050E040E0B601C5010E945B00F7
:100240009FEF24E38CE0915020408040E1F700C014
:100250000000012FABCF0F3F59F041E050E06BE0C1
:1002600070E08BE790E00E945B008FEF0E944100FE
:100270001FEFE6CF0E944E010C942F020E9428022D
:1002800058F00E94210240F029F45F3F29F00C94BD
:10029000180251110C9463020C941E020E94400239
:1002A00068F39923B1F3552391F3951B550BBB27A5
:1002B000AA2762177307840738F09F5F5F4F220FEA
:1002C000331F441FAA1FA9F335D00E2E3AF0E0E8E1
:1002D00032D091505040E695001CCAF72BD0FE2F2B
:1002E00029D0660F771F881FBB1F261737074807BF
:1002F000AB07B0E809F0BB0B802DBF01FF27935877
:100300005F4F3AF09E3F510578F00C9418020C9420
:1003100063025F3FE4F3983ED4F386957795679543
:10032000B795F7959F5FC9F7880F911D96958795AB
:1003300097F90895E1E0660F771F881FBB1F6217CA
:1003400073078407BA0720F0621B730B840BBA0B88
:10035000EE1F88F7E09508950E94480288F09F57A5
:1003600098F0B92F9927B751B0F0E1F0660F771FD9
:10037000881F991F1AF0BA95C9F714C0B13091F0CF
:100380000E946202B1E008950C946202672F782FF8
:100390008827B85F39F0B93FCCF386957795679594
:1003A000B395D9F73EF490958095709561957F4F00
:1003B0008F4F9F4F0895E89409C097FB3EF49095A6
:1003C0008095709561957F4F8F4F9F4F9923A9F02E
:1003D000F92F96E9BB279395F695879577956795BD
:1003E000B795F111F8CFFAF4BB0F11F460FF1BC001
:1003F0006F5F7F4F8F4F9F4F16C0882311F096E994
:1004000011C0772321F09EE8872F762F05C0662341
:1004100071F096E8862F70E060E02AF09A95660FFA
:10042000771F881FDAF7880F9695879597F90895B3
:1004300097F99F6780E870E060E008959FEF80EC97
:10044000089500240A94161617061806090608953A
:1004500000240A9412161306140605060895092EA0
:100460000394000C11F4882352F0BB0F40F4BF2B0F
:1004700011F460FF04C06F5F7F4F8F4F9F4F08954F
:1004800057FD9058440F551F59F05F3F71F0479545
:10049000880F97FB991F61F09F3F79F0879508952A
:1004A000121613061406551FF2CF4695F1DF08C049
:1004B000161617061806991FF1CF86957105610566
:1004C00008940895E894BB2766277727CB0197F90E
:1004D0000895991B79E004C0991F961708F0961BA0
:0E04E000881F7A95C9F780950895F894FFCF8C
:1004EE004F7574206F662072616E67650054656D7E
:1004FE0070657261747572653A200020202020208C
:08050E002041203C20420000C6
:00000001FF
