:100000000C942A000C9434000C9434000C943400AA
:100010000C9434000C9434000C9434000C94340090
:100020000C9434000C9434000C9434000C94340080
:100030000C9434000C9434000C9434000C94340070
:100040000C9434000C9434000C9434000C94340060
:100050000C94340011241FBECFE5D8E0DEBFCDBF25
:100060000E9436000C9427020C94000083E084BBAD
:1000700080E487BB83E48DB91EB81FB88AE683BFCE
:10008000BB9A80E011E0779BFECFDFB197EE9D0F2A
:10009000C2E39530D0F092EE9D0FCCE39530A8F0FE
:1000A0009DED9D0FC6E4953080F098ED9D0FC0E565
:1000B000953058F093ED9D0FCAE5953030F09EECE9
:1000C0009D0FC0E0963008F4C4E68C17A9F06C2FA1
:1000D00070E090E080E00E942E0120E030E048ECEB
:1000E00052E40E948B0020E030E04FE753E40E948E
:1000F000BA010E94FD006CBF88EC8D0F8D3228F490
:1001000085B3812785BBA99804C0A898D431D8F7B6
:10011000A99A8C2FB8CF0E949F000C9480010E9456
:10012000790158F00E94720140F029F45F3F29F0F4
:100130000C94690151110C94B4010C946F010E944C
:10014000910168F39923B1F3552391F3951B550B56
:10015000BB27AA2762177307840738F09F5F5F4F9A
:10016000220F331F441FAA1FA9F335D00E2E3AF0D9
:10017000E0E832D091505040E695001CCAF72BD0F1
:10018000FE2F29D0660F771F881FBB1F2617370742
:100190004807AB07B0E809F0BB0B802DBF01FF2774
:1001A00093585F4F3AF09E3F510578F00C946901E7
:1001B0000C94B4015F3FE4F3983ED4F386957795B1
:1001C0006795B795F7959F5FC9F7880F911D96952D
:1001D000879597F90895E1E0660F771F881FBB1F89
:1001E000621773078407BA0720F0621B730B840B36
:1001F000BA0BEE1F88F7E09508950E94990188F0E8
:100200009F5798F0B92F9927B751B0F0E1F0660FDA
:10021000771F881F991F1AF0BA95C9F714C0B1301B
:1002200091F00E94B301B1E008950C94B301672FDF
:10023000782F8827B85F39F0B93FCCF3869577954A
:100240006795B395D9F73EF4909580957095619533
:100250007F4F8F4F9F4F0895E89409C097FB3EF45E
:1002600090958095709561957F4F8F4F9F4F992303
:10027000A9F0F92F96E9BB279395F6958795779581
:100280006795B795F111F8CFFAF4BB0F11F460FF41
:100290001BC06F5F7F4F8F4F9F4F16C0882311F099
:1002A00096E911C0772321F09EE8872F762F05C0AD
:1002B000662371F096E8862F70E060E02AF09A9548
:1002C000660F771F881FDAF7880F9695879597F93D
:1002D000089597F99F6780E870E060E008959FEFC8
:1002E00080EC089500240A941616170618060906CD
:1002F000089500240A94121613061406050608959C
:10030000092E0394000C11F4882352F0BB0F40F423
:10031000BF2B11F460FF04C06F5F7F4F8F4F9F4F63
:10032000089557FD9058440F551F59F05F3F71F0E5
:100330004795880F97FB991F61F09F3F79F087954C
:100340000895121613061406551FF2CF4695F1DFD5
:1003500008C0161617061806991FF1CF8695710565
:10036000610508940895E894BB2766277727CB0199
:1003700097F908950E94CD010C9480010E947201AA
:1003800038F00E94790120F0952311F00C94690156
:100390000C946F0111240C94B4010E94910170F32C
:1003A000959FC1F3950F50E0551F629FF001729F1A
:1003B000BB27F00DB11D639FAA27F00DB11DAA1F29
:1003C000649F6627B00DA11D661F829F2227B00D76
:1003D000A11D621F739FB00DA11D621F839FA00D01
:1003E000611D221F749F3327A00D611D231F849F51
:1003F000600D211D822F762F6A2F11249F575040A8
:100400009AF0F1F088234AF0EE0FFF1FBB1F661F22
:10041000771F881F91505040A9F79E3F510580F0EB
:100420000C9469010C94B4015F3FE4F3983ED4F35B
:10043000869577956795B795F795E7959F5FC1F78F
:10044000FE2B880F911D9695879597F90895F8943E
:02045000FFCFDC
:00000001FF
